:100000000C9435000C945D000C945D000C945D0024
:100010000C945D000C945D000C945D000C945D00EC
:100020000C945D000C945D000C945D000C945D00DC
:100030000C945D000C945D000C945D000C945D00CC
:100040000C94810C0C945D000C945D000C945D008C
:100050000C945D000C945D000C945D000C945D00AC
:100060000C945D000C945D00150311241FBECFEFAE
:10007000D8E0DEBFCDBF12E0A0E0B1E0EAE2FCE1F3
:1000800002C005900D92AC3CB107D9F725E0ACEC6D
:10009000B2E001C01D92A735B207E1F710E0C5E359
:1000A000D0E004C02197FE010E94FE0DC433D107A9
:1000B000C9F70E94720C0C94130E0C940000DA0124
:1000C000FC0180E090E0861797076CF42C91208368
:1000D00011962C911197218312962C9112972283BD
:1000E00001963396F0CF08958F929F92AF92BF9270
:1000F000CF92DF92EF92FF920F931F93CF93DF93F4
:10010000EC01188219821A826623C1F1FA01890171
:100110007C016A0183E0C80ED11C862E912CA12C93
:10012000B12C2191222311F1D8016C916623F1F0B9
:10013000822F90E0A0E0B0E09C01AD012F5F3F4F27
:100140004F4F5F4F862F90E0A0E0B0E0BC01CD01A3
:100150006F5F7F4F8F4F9F4F0E94730D9B01AC01CC
:10016000C501B4010E94730DD7018C930F5F1F4F1F
:10017000BFEFEB1AFB0AEC15FD0599F6CE01DF91F6
:10018000CF911F910F91FF90EF90DF90CF90BF9094
:10019000AF909F908F900895FC018FEF8083128223
:1001A0001182148613868FEF9FEFDC01878390877F
:1001B000A187B2870895CF93DF93C091D802D091E1
:1001C000D902209791F08A819B81009751F04D854B
:1001D0005E859A01220F331F420F531F60E00E9479
:1001E00019030C80DD81C02DECCFDF91CF910895F4
:1001F000CF92DF92EF92FF920F931F93CF93DF93F3
:100200002091D0023091D102A9014F5F5F4F5093EE
:10021000D1024093D00226173707B4F1EC010E94B7
:10022000CB0C8B019C01E091D002F091D10288EEC1
:1002300093E0E89FB001E99F700DF89F700D1124C5
:10024000072E000C880B990BC090CC02D090CD02E9
:10025000E090CE02F090CF02A90198012C193D093F
:100260004E095F090E94AB0D3A8329831092D10297
:100270001092D0020E94CB0C6093CC027093CD02FE
:100280008093CE029093CF02DF91CF911F910F9177
:10029000FF90EF90DF90CF900895AF92BF92CF92F2
:1002A000DF92EF92FF920F931F93CF93DF9300D0D3
:1002B0001F92CDB7DEB77C01D62EF70183819481E2
:1002C000A581B681892B8A2B8B2BD1F00E94D70C6C
:1002D0000091D2021091D3022091D4023091D50224
:1002E000DC01CB01801B910BA20BB30BF701038147
:1002F00014812581368180179107A207B307E8F2A0
:100300000E94D70C6093D2027093D3028093D402E0
:100310009093D502D7011B96ED91FC911C973097D5
:1003200051F0D70117964D915D916D917C911A977F
:100330008D2D0995D82E0091D8021091D902011562
:10034000110579F1F801C484D70111968D919C9122
:1003500012978436910508F41486D801ED91FC912A
:10036000A280B3809801275F3F4FA8014A5F5F4F8B
:100370006D2DCE0101960E947400F80145855685C9
:10038000628173819E012F5F3F4FC801F50109957E
:10039000D8011C96CC921C9714960D911C91159720
:1003A000CECF69E170E0C7010E94F8000F900F9076
:1003B0000F90DF91CF911F910F91FF90EF90DF9001
:1003C000CF90BF90AF9008958F929F92AF92BF92BF
:1003D000CF92DF92EF92FF920F931F93CF93DF9311
:1003E00000D01F92CDB7DEB77C015B01D42EF701A0
:1003F00083819481A581B681892B8A2B8B2BD1F0A7
:100400000E94D70C0091D2021091D3022091D40205
:100410003091D502DC01CB01801B910BA20BB30BF9
:10042000F701038114812581368180179107A20786
:10043000B307E8F20E94D70C6093D2027093D30204
:100440008093D4029093D502D7011B96ED91FC9135
:100450001C97309751F0D70117964D915D916D9192
:100460007C911A978D2D0995D82E0091D802109164
:10047000D9020115110571F1F801C484D701119653
:100480008D919C9112978436910508F41486D801B9
:10049000ED91FC91808091809801275F3F4FA801EA
:1004A0004A5F5F4F6D2DCE0101960E947400F801E6
:1004B000458556859E012F5F3F4FB501C801F40168
:1004C0000995D8011C96CC921C9714960D911C91FD
:1004D0001597CFCF69E170E0C7010E94F8000F9037
:1004E0000F900F90DF91CF911F910F91FF90EF90A0
:1004F000DF90CF90BF90AF909F908F9008950F9313
:100500001F93CF93DF9300D01F92CDB7DEB78C013E
:10051000662349F019821A821B8240E0BE016F5F98
:100520007F4F0E94E401C8010E94DB000F900F90F2
:100530000F90DF91CF911F910F910895CF93DF938B
:10054000EC014423E1F06115710571F19B0140E07C
:1005500050E060E472E48FE090E00E94CD0D8B816A
:100560009C81AD81BE8182179307A407B50710F463
:10057000DA01C9018B839C83AD83BE8315C06115ED
:10058000710571F09B0140E050E060E472E48FE09F
:1005900090E00E94CD0D2B833C834D835E8304C08D
:1005A0001B821C821D821E82DF91CF910895CF9203
:1005B000DF92EF92FF920F931F93CF93DF938C0103
:1005C0006B01EA017901121613061CF07A01C0E0F2
:1005D000D0E0D801ED91FC910480F581E02DC801B7
:1005E0000995CE01880F991FC80FD91FCC0DDD1DAD
:1005F000F801D383C283F686E5860190F081E02D71
:100600000284F385E02DC801099541E0BC018AED23
:1006100092E00E949E02C801DF91CF911F910F913D
:10062000FF90EF90DF90CF9008958AED92E00C94C8
:10063000CC00DC0140FF03C001C06D936D934250BC
:10064000E0F75040D0F70895FC0185859685089520
:10065000CF93DF9300D000D000D0CDB7DEB7AB0191
:100660001C821D821E82DC01ED91FC910190F081C3
:10067000E02D19821A821B829E012F5F3F4FBE011F
:100680006C5F7F4F099526960FB6F894DEBF0FBEBC
:10069000CDBFDF91CF91089580E991E00895539AFD
:1006A0000895FC0160810C944D0160ED77E080E0DD
:1006B00090E00E94FC0C8091E802811145C01092EC
:1006C000F3021092F2028FEF8093F6028093F7020A
:1006D0008093F8028093F9028093FA028093FB02E0
:1006E00081E08093FC021092FE021092FD021092B3
:1006F000F5021092F4028091D8029091D902892BD0
:1007000031F480EF92E09093D9028093D802E09187
:10071000D602F091D702309721F080EF92E09583D6
:10072000848380EF92E09093D7028093D602109258
:1007300000031092FF028EEB92E09093F1028093FF
:10074000F00281E08093E80220E030E044EC50E0E9
:1007500061E073E080EF92E00E94D70288E280932C
:10076000DA0260E08AED92E00C947F022F923F92D1
:100770004F925F926F927F928F929F92AF92BF92B1
:10078000CF92DF92EF92FF920F931F93CF93DF935D
:1007900000D000D01F92CDB7DEB760E08AED92E0C6
:1007A0000E947F02E12CF12C1FEF0FEFE0EA2E2ECA
:1007B000E2E03E2EF8E74F2EF2E05F2E80914002FD
:1007C00090914102E816F9061CF4C12CD12C24C0EA
:1007D00000E010E04BE8442E5AEB652E52E0752EF7
:1007E0006AE5A62E62E0B62E55245A9470E7872E4D
:1007F00072E0972E23C28AED92E00E94510360912D
:10080000440270914502072E000C880B990B0E9440
:10081000FC0CFFEFCF1ADF0A809142029091430255
:10082000C816D9061CF0C12CD12C02C109831A822A
:100830001B82AE014F5F5F4F64EC70E081E093E09C
:100840000E945F0030EA632E32E0732ED30122E073
:10085000AA3BB20769F0ED91F0E0CF01880F991F34
:10086000E80FF91FEF5FFC4F108211821282EFCF69
:1008700070E9872E72E0972E80E892E09D838C834A
:10088000D401E2E0A03ABE07E1F0ED91F0E09F0173
:10089000220F331FE20FF31FEF5FFC4F1083118312
:1008A0001283FC012191CF01E22FF0E09F01220F82
:1008B000331FE20FF31FEF5FFC4F1083118312838E
:1008C000E0CF48E7A42E42E0B42ED50180E892E0C4
:1008D0008A179B0771F0ED91F0E0CF01880F991F07
:1008E000E80FF91FEF5FFC4F108211829BE89283A3
:1008F000EDCFA4E6B2E0E2E0A037BE0769F0ED91EB
:10090000F0E0CF01880F991FE80FF91FEF5FFC4F50
:10091000108211821282EFCF8AED92E00E94510381
:100920006091440270914502072E000C880B990BD0
:100930000E94FC0C09831A821B82AE014F5F5F4F3D
:1009400064EC70E081E093E00E945F00FAEB6F16C8
:10095000F2E07F0679F0D301ED913D01F0E0CF01A7
:10096000880F991FE80FF91FEF5FFC4F108211826B
:100970001282ECCFB0EA8B16B2E09B06F9F0D401FC
:10098000ED914D01F0E0CF01880F991FE80FF91F9D
:10099000EF5FFC4F108311831283AC81BD81ED9119
:1009A000BD83AC83F0E0CF01880F991FE80FF91FDA
:1009B000EF5FFC4F108311831283DCCFE0E8F2E09D
:1009C000EA15FB0581F0D501ED915D01F0E0CF0165
:1009D000880F991FE80FF91FEF5FFC4F10821182FB
:1009E000BBE8B283EBCFAAE5B2E0E2E0A436BE07F3
:1009F00009F401CFED91F0E0CF01880F991FE80FC6
:100A0000F91FEF5FFC4F108211821282EECF8AED48
:100A100092E00E9451036091440270914502072EBA
:100A2000000C880B990B0E94FC0CFFEFCF1ADF0A19
:100A30008091420290914302C816D9060CF0EAC098
:100A400009831A821B82AE014F5F5F4F64EC70E036
:100A500081E093E00E945F0030EA632E32E0732E63
:100A6000D30122E0AA3BB20769F0ED91F0E0CF019B
:100A7000880F991FE80FF91FEF5FFC4F108211825A
:100A80001282EFCF70E9872E72E0972E80E892E015
:100A90009D838C83D4012A163B06E1F0ED91F0E0B2
:100AA0009F01220F331FE20FF31FEF5FFC4F1083F4
:100AB00011831283FC012191CF01E22FF0E09F010D
:100AC000220F331FE20FF31FEF5FFC4F10831183E0
:100AD0001283E1CF40E7A42E42E0B42ED5014A169E
:100AE0005B0671F0ED91F0E0CF01880F991FE80FE0
:100AF000F91FEF5FFC4F108211822BE82283EFCFAA
:100B0000A4E6B2E082E0A037B80769F0ED91F0E02A
:100B1000CF01880F991FE80FF91FEF5FFC4F10827C
:100B200011821282EFCF8AED92E00E945103609110
:100B3000440270914502072E000C880B990B0E940D
:100B4000FC0C09831A821B82AE014F5F5F4F64EC7D
:100B500070E081E093E00E945F009AEB691692E0FA
:100B6000790679F0D301ED913D01F0E0CF01880FD6
:100B7000991FE80FF91FEF5FFC4F1082118212825C
:100B8000ECCF28143904F9F0D401ED914D01F0E0D7
:100B9000CF01880F991FE80FF91FEF5FFC4F1083FB
:100BA00011831283AC81BD81ED91BD83AC83F0E0F4
:100BB000CF01880F991FE80FF91FEF5FFC4F1083DB
:100BC00011831283DECF4A145B0481F0D501ED91CD
:100BD0005D01F0E0CF01880F991FE80FF91FEF5F6B
:100BE000FC4F10821182BBE8B283EDCFAAE5B2E0E0
:100BF000E2E0A436BE0709F40ACFED91F0E0CF01A0
:100C0000880F991FE80FF91FEF5FFC4F10821182C8
:100C10001282EECF2FEFE21AF20AD0CD8AED92E0E7
:100C20000E9451036091440270914502072E000C0E
:100C3000880B990B0E94FC0C0F5F1F4F80913E02A6
:100C400090913F02081719074CF000E010E04BE8C4
:100C5000B42EFF24FA94EE24EA94AEC019821A82CC
:100C60004B82AE014F5F5F4F64EC70E081E093E038
:100C70000E945F0030EAC32E32E0D32ED6016A16FE
:100C80007B0669F0ED91F0E0CF01880F991FE80F26
:100C9000F91FEF5FFC4F108211821282F0CF76E4D1
:100CA000E72E72E0F72ED701AA16BB0669F0ED9188
:100CB000F0E0CF01880F991FE80FF91FEF5FFC4F9D
:100CC000508251821282F0CFA4E6B2E08A169B06CF
:100CD00069F0ED91F0E0CF01880F991FE80FF91F3F
:100CE000EF5FFC4F108211821282F0CF8AED92E00A
:100CF0000E9451036091440270914502072E000C3E
:100D0000880B990B0E94FC0C19821A824B82AE014F
:100D10004F5F5F4F64EC70E081E093E00E945F0002
:100D20008AEBC81682E0D80679F0D601ED916D0104
:100D3000F0E0CF01880F991FE80FF91FEF5FFC4F1C
:100D4000108211821282ECCFBAE5EB16B2E0FB06FC
:100D500079F0D701ED917D01F0E0CF01880F991F67
:100D6000E80FF91FEF5FFC4F508251821282ECCFE7
:100D7000AAE5B2E0E2E0A436BE0709F44FCFED9158
:100D8000F0E0CF01880F991FE80FF91FEF5FFC4FCC
:100D9000108211821282EECF8AED92E00E945103FE
:100DA0006091440270914502072E000C880B990B4C
:100DB0000E94FC0C0F5F1F4F80913C0290913D02FE
:100DC0000817190744F0E12CF12C1FEF78E0C72E2B
:100DD00071E0D72E27C119821A82BB82AE014F5F04
:100DE0005F4F64EC70E081E093E00E945F0060EA96
:100DF000862E62E0962ED401F2E0AA3BBF0769F08E
:100E0000ED91F0E0CF01880F991FE80FF91FEF5F18
:100E1000FC4F108211821282EFCF46E4C42E42E0D2
:100E2000D42ED60122E0AA35B20769F0ED91F0E0A8
:100E3000CF01880F991FE80FF91FEF5FFC4FF08279
:100E4000F1821282EFCFA4E6B2E082E0A037B807C9
:100E500069F0ED91F0E0CF01880F991FE80FF91FBD
:100E6000EF5FFC4F108211821282EFCF8AED92E089
:100E70000E9451036091440270914502072E000CBC
:100E8000880B990B0E94FC0CE982EA821B82AE015E
:100E90004F5F5F4F64EC70E081E093E00E945F0081
:100EA0009AEB891692E0990679F0D401ED914D0103
:100EB000F0E0CF01880F991FE80FF91FEF5FFC4F9B
:100EC000108211821282ECCFBAE5CB16B2E0DB06BB
:100ED00079F0D601ED916D01F0E0CF01880F991FF7
:100EE000E80FF91FEF5FFC4FF08211821282ECCF06
:100EF000AAE5B2E0E2E0A436BE0709F44DCFED91D9
:100F0000F0E0CF01880F991FE80FF91FEF5FFC4F4A
:100F1000108211821282EECFA0E3B1E0E1E0A433AF
:100F2000BE0709F066C1E0912E01F0E0CF01880F05
:100F3000991FE80FF91FEF5FFC4F10831182128396
:100F4000E0912F01F0E0CF01880F991FE80FF91F02
:100F5000EF5FFC4F1083118212838AED92E00E94B2
:100F6000510368EC70E080E090E00E94FC0CABE084
:100F7000B1E0F1E0AE32BF0709F048C1E0910201F3
:100F8000F0E0CF01880F991FE80FF91FEF5FFC4FCA
:100F9000108311831282E0910301F0E0CF01880FEA
:100FA000991FE80FF91FEF5FFC4F10831183128226
:100FB000A4E0B1E0CA16DB0609F035C1E0910801F2
:100FC000F0E0CF01880F991FE80FF91FEF5FFC4F8A
:100FD000108311821283E0910901F0E0CF01880FA4
:100FE000991FE80FF91FEF5FFC4F108311821283E6
:100FF000E0910A01F0E0CF01880F991FE80FF91F77
:10100000EF5FFC4F1082118212838AED92E00E9402
:10101000510368EC70E080E090E00E94FC0C2FEF40
:10102000E21AF20A8091000190910101E816F90696
:101030000CF006C160E08AED92E00E947F02ACE015
:10104000B2E0F2E0AC33BF0769F0ED91F0E0CF0120
:10105000880F991FE80FF91FEF5FFC4F1082118274
:101060001282EFCFAFECB1E022E0AC30B20769F012
:10107000ED91F0E0CF01880F991FE80FF91FEF5FA6
:10108000FC4F108211821282EFCFA4E9B1E081E01F
:10109000AF3CB80769F0ED91F0E0CF01880F991FE0
:1010A000E80FF91FEF5FFC4F108311831282EFCF1F
:1010B000A0E8B1E091E0A439B90769F0ED91F0E062
:1010C000CF01880F991FE80FF91FEF5FFC4F1083C6
:1010D00011821282EFCFABE7B1E0E1E0A038BE07AA
:1010E00069F0ED91F0E0CF01880F991FE80FF91F2B
:1010F000EF5FFC4F108311821283EFCFA8E7B1E0BE
:10110000F1E0AB37BF0769F0ED91F0E0CF01880F58
:10111000991FE80FF91FEF5FFC4F108211821283B5
:10112000EFCF8AED92E00E94510368EC70E080E01E
:1011300090E00E94FC0CE0917601F0E0CF01880F76
:10114000991FE80FF91FEF5FFC4F10821182128286
:10115000E0917701F0E0CF01880F991FE80FF91FA8
:10116000EF5FFC4F108211821282ADE5B1E021E009
:10117000A637B20769F0ED91F0E0CF01880F991F13
:10118000E80FF91FEF5FFC4F108311831282EFCF3E
:10119000A9E5B1E081E0AD35B80769F0ED91F0E087
:1011A000CF01880F991FE80FF91FEF5FFC4F1083E5
:1011B00011821282EFCF8AED92E00E94510368EC17
:1011C00070E080E090E00E94FC0CA4E3B1E091E0CC
:1011D000A935B90709F4A0CEED91F0E0CF01880F51
:1011E000991FE80FF91FEF5FFC4F108311831282E4
:1011F000EECFED91F0E0CF01880F991FE80FF91FB6
:10120000EF5FFC4F10831182128288CEED91F0E0E7
:10121000CF01880F991FE80FF91FEF5FFC4F108275
:1012200011821282A6CEED91F0E0CF01880F991FB6
:10123000E80FF91FEF5FFC4F108311821282BACEC4
:101240000F900F900F900F900F90DF91CF911F9103
:101250000F91FF90EF90DF90CF90BF90AF909F9055
:101260008F907F906F905F904F903F902F90089558
:101270009F92AF92BF92CF92DF92EF92FF920F9325
:101280001F93CF93DF93FC01C080D1802BB12860E6
:10129000B22E9BB1977F9BB961858681062F081B73
:1012A000802F06837785A281B38134854585568555
:1012B00099249394930E4F5F5F5FF780E084C2851B
:1012C000D385F6011081A12C0A2D2A2D3A2D3081CB
:1012D000112788943111380F08F43FEF81958894D5
:1012E00090FC130F1795889491FC130F1795889411
:1012F00092FC130F1795889493FC130F17958894FD
:1013000094FC130F1795889495FC130F17958894E8
:1013100096FC130F1795889497FC130F17958894D4
:10132000032F9110012F860F102F002CBBB800C087
:1013300000C017FF9BB931810027889400C0002CA2
:101340009BB931113F0D00C0002CBBB800C000C0DC
:1013500016FF9BB908F43FEFF194889400C0002C6D
:101360009BB940FD030F00C0002CBBB800C000C0FB
:1013700015FF9BB90795889441FD030F00C0002C11
:101380009BB90795889400C0002CBBB800C000C072
:1013900014FF9BB942FD030F0795889400C0002CF1
:1013A0009BB943FD030F00C0002CBBB800C000C0B8
:1013B00013FF9BB90795889444FD030F00C0002CD0
:1013C0009BB90795889400C0002CBBB800C000C032
:1013D00012FF9BB945FD030F0795889400C0002CB0
:1013E0009BB946FD030F00C0002CBBB800C000C075
:1013F00011FF9BB90795889447FD030F00C0002C8F
:101400009BB90795889400C0002CBBB800C000C0F1
:1014100010FF9BB9132F4111102FFC0E00C0002CA0
:101420009BB900C000C0002CBBB800C000C017FFB3
:101430009BB932810027889400C0002C9BB93111E0
:101440003E0D00C0002CBBB800C000C016FF9BB909
:1014500008F43FEFE70FF11D00C0002C9BB950FDD1
:10146000030F00C0002CBBB800C000C015FF9BB923
:101470000795889451FD030F00C0002C9BB9079578
:10148000889400C0002CBBB800C000C014FF9BB9FA
:1014900052FD030F0795889400C0002C9BB953FDA3
:1014A000030F00C0002CBBB800C000C013FF9BB9E5
:1014B0000795889454FD030F00C0002C9BB9079535
:1014C000889400C0002CBBB800C000C012FF9BB9BC
:1014D00055FD030F0795889400C0002C9BB956FD5D
:1014E000030F00C0002CBBB800C000C011FF9BB9A7
:1014F0000795889457FD030F00C0002C9BB90795F2
:10150000889400C0002CBBB800C000C010FF9BB97D
:10151000132F5111102FE19400C0002C9BB9ED0E38
:1015200000C000C0BBB800C000C017FF9BB930812D
:101530000027889400C0002C9BB93111380F00C0DF
:10154000002CBBB800C000C016FF9BB908F43FEFE9
:101550008195889400C0002C9BB990FC030F00C0BB
:10156000002CBBB800C000C015FF9BB9079588943C
:1015700091FC030F00C0002C9BB90795889400C014
:10158000002CBBB800C000C014FF9BB992FC030F35
:101590000795889400C0002C9BB993FC030F00C0F2
:1015A000002CBBB800C000C013FF9BB907958894FE
:1015B00094FC030F00C0002C9BB90795889400C0D1
:1015C000002CBBB800C000C012FF9BB995FC030FF4
:1015D0000795889400C0002C9BB996FC030F00C0AF
:1015E000002CBBB800C000C011FF9BB907958894C0
:1015F00097FC030F00C0002C9BB90795889400C08E
:10160000002CBBB800C000C010FF9BB9132F911075
:10161000102F860F00C0002C9BB9119709F086CEC1
:10162000DF91CF911F910F91FF90EF90DF90CF90BE
:10163000BF90AF909F9008950F931F93CF93DF9328
:10164000EC018B010E94D70C2F853889621B730B2C
:101650006A307105B8F3F894C8010E943809F8019E
:101660004281538120EE31E0DA010E94EC0DDC0171
:10167000CB01F4E0B695A79597958795FA95D1F7A4
:1016800020E030E0B901EAE94E9F040E611D5E9F43
:10169000600D711D1124650F711D860F971FA11D0F
:1016A000B11D893EF3E09F07A105B10508F434C0E0
:1016B000885E9340A109B10942E0B695A795979538
:1016C00087954A95D1F747E0849F080E211D949F86
:1016D000200D311D1124290F311D60914D0570E041
:1016E000860F971F820F931F40914F055091500511
:1016F0006091510570915205292F3327420F531FD6
:10170000611D711D40934F05509350056093510525
:101710007093520580934D0578940E94D70C788B76
:101720006F87DF91CF911F910F910895FC01118A6E
:10173000108A08950F931F93CF93DF932091E702B0
:101740002F5F322F37703093E70220FF02C020E86E
:1017500001C020E031FD2064347009F02062205F78
:10176000FC01EC01239600E011E06485662331F072
:1017700070E0C8010E94970D6F5F01C060E0618753
:10178000322F369F030E30E0311D1124311102C07B
:10179000168202C031503683662311F06150618792
:1017A0003196CE17DF0709F7DF91CF911F910F9187
:1017B0000895EF92FF920F931F93CF93DF93CDB7CE
:1017C000DEB762970FB6F894DEBF0FBECDBF8C01B7
:1017D0007A01F901DC011C968C917A8369835C8320
:1017E0004B835E834D8390819D8791819E879281FB
:1017F0009F87813029F4CE0101960E949A0B06C082
:101800001C861B861A86198618861F8283E0888BA1
:10181000B701CE0101960E94960BD801ED91FC9183
:101820000484F585E02DBE016F5F7F4FC8010995E7
:1018300062960FB6F894DEBF0FBECDBFDF91CF9199
:101840001F910F91FF90EF900895EF92FF920F93E9
:101850001F93CF93DF93CDB7DEB762970FB6F8949F
:10186000DEBF0FBECDBF8C017A01F901DC011C96F1
:101870008C917A8369835C834B835E834D839081F3
:101880009D8791819E8792819F87813029F4CE0127
:1018900001960E949A0B06C01C861B861A86198622
:1018A00018861F82188AB701CE0101960E94960BF6
:1018B000D801ED91FC910484F585E02DBE016F5FA8
:1018C0007F4FC801099562960FB6F894DEBF0FBE30
:1018D000CDBFDF91CF911F910F91FF90EF900895B1
:1018E000089508950E94380D0E94710C0E945503BE
:1018F000C0E0D0E00E94B6032097E1F30E94000010
:10190000F9CF1F920F920FB60F9211242F933F938E
:101910008F939F93AF93BF9380914F059091500504
:10192000A0915105B091520530914E0523E0230F4F
:101930002D3720F40196A11DB11D05C026E8230F07
:101940000296A11DB11D20934E0580934F059093E3
:101950005005A0935105B093520580915305909185
:101960005405A0915505B09156050196A11DB11DD4
:101970008093530590935405A0935505B093560555
:10198000BF91AF919F918F913F912F910F900FBE7B
:101990000F901F9018952FB7F89460914F05709194
:1019A000500580915105909152052FBF08953FB782
:1019B000F8948091530590915405A0915505B091EC
:1019C000560526B5A89B05C02F3F19F00196A11D0D
:1019D000B11D3FBFBA2FA92F982F8827820F911DC5
:1019E000A11DB11DBC01CD0142E0660F771F881F0C
:1019F000991F4A95D1F708958F929F92AF92BF9207
:101A0000CF92DF92EF92FF926B017C010E94D70C84
:101A10004B015C01C114D104E104F10401F10E9405
:101A2000700C0E94D70CDC01CB0188199909AA0916
:101A3000BB09883E9340A105B10560F321E0C21ABD
:101A4000D108E108F10888EE880E83E0981EA11CF9
:101A5000B11CC114D104E104F10419F7DBCFFF90EC
:101A6000EF90DF90CF90BF90AF909F908F900895B0
:101A7000789484B5826084BD84B5816084BD85B569
:101A8000826085BD85B5816085BDEEE6F0E0808130
:101A900081608083E1E8F0E0108280818260808351
:101AA000808181608083E0E8F0E0808181608083D4
:101AB000E1EBF0E0808184608083E0EBF0E0808106
:101AC00081608083EAE7F0E08081846080838081A8
:101AD0008260808380818160808380818068808350
:101AE0001092C1000895DB018F939F930E94F30D24
:101AF000BF91AF91A29F800D911DA39F900DB29FAA
:101B0000900D11240895AA1BBB1B51E107C0AA1F09
:101B1000BB1FA617B70710F0A61BB70B881F991F8E
:101B20005A95A9F780959095BC01CD01089597FB32
:101B3000072E16F4009407D077FD09D00E94830D7C
:101B400007FC05D03EF4909581959F4F08957095C0
:101B500061957F4F0895A1E21A2EAA1BBB1BFD01C0
:101B60000DC0AA1FBB1FEE1FFF1FA217B307E4077C
:101B7000F50720F0A21BB30BE40BF50B661F771FD4
:101B8000881F991F1A9469F76095709580959095B4
:101B90009B01AC01BD01CF010895052E97FB1EF4FA
:101BA00000940E94E40D57FD07D00E94AB0D07FC86
:101BB00003D04EF40C94E40D50954095309521954A
:101BC0003F4F4F4F5F4F0895909580957095619569
:101BD0007F4F8F4F9F4F08950E94040EB7FF0895C7
:101BE000821B930B08950E94040EA59F900DB49F35
:101BF000900DA49F800D911D11240895EE0FFF1FDD
:101C00000590F491E02D0994A29FB001B39FC0010B
:101C1000A39F700D811D1124911DB29F700D811D18
:0A1C20001124911D0895F894FFCFE0
:101C2A00140085862B2C7F80858675414243444566
:101C3A00464748494A4B4C4D595A5B5C5D5E5F606A
:101C4A00616263646566676869797A7B7C7D7576AB
:101C5A00466061622B2C41424344454748494A4BFE
:101C6A004C4D595A5B5C5D5E5F6364656667686983
:101C7A00797A7B7C7D7F8085862B2C7F8010111260
:101C8A00252627282D2E2F3F40777881828392950B
:101C9A009697989C9D9E0AB2758EA43C74858692EE
:101CAA000A127172898A8B8C8D8F9EA2A3A5ABAC06
:101CBA00ADB2BFC005060708091314151617181E7A
:101CCA001F2021222324303132333435393A3B3D27
:101CDA003E4E4F505152555657586A6B6C6D6E7343
:101CEA0076848788909193949FA0A1AEAFB0B110EB
:101CFA0011252627282B2C2D2E2F3F4041424344C5
:101D0A0045464748494A4B4C4D595A5B5C5D5E5FB4
:101D1A00606162636465666768697778797A7B7CF3
:101D2A007D7F80818283959697989C9D000102030E
:101D3A00040B0C0D0E0F191A1B1C1D292A363738D5
:101D4A0053546F707E999A9BA6A7A8A9AAB3B4B553
:101D5A00B6B7B8B9BABBBCBDBEC1C2C314001E0077
:101D6A000400100078002B2E2F3233363A3B3E3FC8
:101D7A00424366676A6B747578790003040508093B
:101D8A000A0D121701020306070A0B0C1014151983
:101D9A006B6C73746566797A6D6E71726768777841
:101DAA005C5D656667687778797A818283849495C1
:101DBA0056576B6C6D6E717273748788898A8E8FB1
:101DCA00707D8B7E8C999A9BA6A7A8A9AAB3B4B555
:101DDA00B6B7B8B9BABFC0C1C2C300000000250C6B
:0C1DEA00D90B4F03280324034C031C0BEF
:00000001FF
